:020000040800F2
:1000000068040020C101000813110008190A000843
:1000100011110008A10800082923000800000000B1
:10002000000000000000000000000000851E000825
:10003000A3080008000000006D130008D91F000885
:10004000DB010008DB010008DB010008DB01000820
:10005000DB010008DB010008DB010008DB01000810
:10006000DB010008DB010008DB010008DB01000800
:10007000DB010008DB010008DB010008DB010008F0
:10008000DB010008DB010008DB010008DB010008E0
:10009000DB010008DB010008DB010008DB010008D0
:1000A000DB010008DB010008DB010008DB010008C0
:1000B000DB010008DB010008DB010008DB010008B0
:1000C000DB010008DB010008DB010008DB010008A0
:1000D000DB010008DB010008DB010008DB01000890
:1000E000DB010008DB010008DB010008DB01000880
:1000F000DB010008DB010008DB010008DB01000870
:10010000DB010008DB010008DB010008DB0100085F
:10011000DB010008DB010008D9200008DB01000832
:10012000DB010008DB010008DB010008DB0100083F
:10013000DB010008DB010008DB010008DB0100082F
:10014000DB010008DB010008DB010008DB0100081F
:10015000DB010008DB010008DB010008DB0100080F
:10016000DB010008DB010008DB010008DB010008FF
:10017000DB010008DB010008DB010008DB010008EF
:10018000DB010008DB010008DB010008DB010008DF
:10019000DB010008DB010008DB010008DB010008CF
:1001A000DB010008DB010008DB010008DFF80CD0F0
:1001B00000F0DAFA004800478528000868040020AB
:1001C0000648804706480047FEE7FEE7FEE7FEE7F1
:1001D000FEE7FEE7FEE7FEE7FEE7FEE78920000810
:1001E000AD010008D2B201E000F8012B491EFBD29C
:1001F00070470022F6E710B513460A460446194632
:10020000FFF7F0FF204610BD2DE9FE4F804681EA42
:100210000300C00F0C46009021F0004123F0004580
:10022000B8EB0200A94105D24046214690461C4643
:100230000B46024623F00040104347D0270DC7F37A
:100240000A00C3F30A510290401A019040286BDA69
:10025000C3F3130040F4801B0098924620B10023A2
:10026000D2EB030A63EB0B0B01985946C0F1400235
:10027000504600F0C3F906460D4650465946019ACD
:1002800000F0CBF910EB08006141002487EA11521D
:1002900084EAE7731A4340D0009A62B3019A012AB4
:1002A0004FEA075215DC001B61EB02014FF00042E0
:1002B00002EA0752CDE90042001C41F580113246A6
:1002C0002B4600F002FA03B0BDE8F08F404621460D
:1002D000F9E7001B61EB0201001C41F580130018D7
:1002E0005B412018A2F5001747EB030140EAD570E7
:1002F000B6196D4111E06D084FEA360645EAC07542
:100300004FEA0752001B61EB0201001C41F580110E
:1003100049084FEA30000019514132462B4603B0DC
:10032000BDE8F04F00F0C2B9009801224000002360
:10033000D0EB020263EBE073009821464FEAE074D1
:10034000B8EB000061EB0401E9E783F000435BE7F1
:1003500081F0004158E72DE9FE4F81EA030404F0E3
:10036000004421F0004100944FF0000B23F00043C3
:1003700050EA01045ED052EA03045BD0C3F30A548E
:10038000C1F30A552C44A4F2F3340194A0FB0254A7
:10039000C1F3130141F48011C3F3130343F4801339
:1003A00001FB024400FB034E840A970A44EA81548D
:1003B00047EA8357A4FB076802958D0A05FB07856A
:1003C0004FEA932C04FB0C542705029D4FEA065874
:1003D00047EA1637B5EB08056EEB070C870E920E51
:1003E00047EA811742EA8312A7FB0201B6EB0B0131
:1003F00064EB00042B0D43EA0C335E1844EB1C50F5
:10040000DA465146E7FB0201C5F313044FEA0B330A
:1004100043EA14534FEA0432019C43EA0603A4F171
:100420000C040294009CCDE900B400F04EF903B036
:10043000BDE8F08F00200146F9E72DE9F04D81EA93
:10044000030404F0004B21F0004514464FF0000A6D
:1004500023F0004150EA050220D054EA01021DD0E9
:10046000C5F30A570246C5F31303C1F31300C1F3E2
:100470000A5640F4801543F48013A7EB0608101BBE
:10048000D64608F2FD3873EB050002D308F10108E7
:1004900001E092185B41B8F1000F03DA0020014639
:1004A000BDE8F08D00204FF48011064684460EE032
:1004B000171B73EB050705D3121B63EB05030643FC
:1004C0004CEA010C49084FEA300092185B4150EAAF
:1004D0000107EDD152EA030012D082EA040083EA58
:1004E0000501084305D0101BAB4106D201220023B1
:1004F00006E000224FF0004302E06FF001025310CB
:100500001AEB06004CEB085110EB0A0041EB0B0113
:10051000BDE8F04D00F0CAB870B521F000430343C8
:100520000CD0C1F30A550024D5EB040564EB040399
:10053000D617AD1AB34102DB0020014670BD20186A
:1005400041EB025170BD0EB5C10F80EAE070084466
:10055000CA07002140F233438DE80E000A460B46DD
:1005600000F0B3F803B000BD30B5041E71F1000413
:1005700004DB4FF00044404264EB0101141E73F1B0
:10058000000405DB1C464FF00043524263EB0403BA
:10059000994208BF904230BD01F0004330B421F0D1
:1005A000004150EA010206D00A0DA2F56072C1F3C3
:1005B0001301002A02DC30BC00207047440F44EADB
:1005C000C104C100E01830BC00EBC25000F037B8E5
:1005D00030B50B46014600202022012409E021FA13
:1005E00002F59D4205D303FA02F5491B04FA02F510
:1005F0002844151EA2F10102F1DC30BD202A04DBE3
:10060000203A00FA02F1002070479140C2F1200325
:1006100020FA03F3194390407047202A06DBCB17DA
:10062000203A41FA02F043EAE07306E041FA02F3AD
:10063000D040C2F12002914008431946704700297A
:10064000A8BF7047401C490008BF20F00100704758
:1006500010B4B0FA80FC00FA0CF050EA010404BFB8
:1006600010BC704749B1CCF1200421FA04F411FA0E
:100670000CF118BF012121430843A3EB0C01CB1D52
:100680004FEA00614FEA102042BF002010BC7047C3
:1006900000EBC35010440029A4BF10BC7047401C9D
:1006A000490008BF20F0010010BC704710B5141EAF
:1006B00073F1000408DA401C41F1000192185B411B
:1006C0001A4301D120F0010010BD2DE9F04D9246F2
:1006D0009B4611B1B1FA81F202E0B0FA80F2203209
:1006E0009046FFF78BFF04460F4640EA0A0041EAB6
:1006F0000B0153465A46084313D0114653EA0100F2
:1007000019D0C8F14002504600F040F805460E46A8
:10071000504659464246FFF771FF084305D0012075
:1007200004E020463946BDE8F08D0020054346EA46
:10073000E0762C4337430A986305E40AA0EB0800EF
:100740000022FD0A44EA47540A3002D5002001463F
:10075000E9E7010510196941DDE90845001969411A
:10076000BDE8F04DA2E70000064C074D06E0E0684A
:1007700040F0010394E8070098471034AC42F6D3E8
:10078000FFF718FD4C3300086C330008202A04DB07
:10079000203A21FA02F00021704721FA02F3D040FA
:1007A000C2F1200291400843194670472DE9F04DEF
:1007B00000231A461B1A8A4103DB00200146BDE8CC
:1007C000F08DC1F30A52C1F3130141F480154FF0CB
:1007D000000BD10702D100186D41521E00270446BC
:1007E00040F2FF11384601EB620A3E46804602465F
:1007F00000204FF48011FFF7C9FFC2197141BB18E7
:1008000046EB0100B4EB030C75EB000C04D3E41AC7
:1008100065EB000517460E46241908F101006D41ED
:1008200080463428E3DDF91946EB0600091BA84190
:1008300003D24FF0FF32134601E0002213461BEBB8
:10084000070046EB0A51BDE8F04DFFF72FBF10B58A
:1008500001F0D4FCBDE81040AFF300803EB50121AB
:10086000102000F093FD42F20F70019042F2273009
:10087000ADF80000094C6946204601F081FC0121D9
:10088000204601F055FC01221146204601F06EFC85
:100890000121204601F052FC3EBD00000010004046
:1008A000FEE7704770B586B00121084600F060FD94
:1008B0000121102000F086FD1E4E07220A2130463D
:1008C00000F091F807220921304600F08CF800244E
:1008D0008DF8164001208DF8170002258DF8145070
:1008E000410204918DF8155004A9304600F03DF8FE
:1008F0008DF814506802049004A9304600F035F8D1
:100900004FF4E1300090ADF80440ADF80640ADF88A
:100910000840ADF80C400C20ADF80A00064C6946C2
:10092000204601F09FFC0121204601F087FC06B023
:1009300070BD0000000002400010014001B50348F6
:100940000099416041680029FCD108BD4C0000209D
:1009500030B5024600244FF47A7503E02846FFF7CD
:10096000EDFF521E9442F9D330BD2DE9F041002233
:1009700001274FF0030C07FA02F50B682B40AB423E
:100980002CD1066853000CFA03F4A64306600E79D6
:10099000D0F800809E4046EA080606600E79012ED7
:1009A00001D0022E12D18668A64386604E79D0F817
:1009B00008809E4046EA080686604668AE43466068
:1009C00045688E799640B6B235434560C568A54303
:1009D000C560CC799C40C3681C43C460521C102A7B
:1009E000C9D3BDE8F08110B54B07DB0E9A40C908AA
:1009F00000EB8100016A0F249C40A1430162016A5F
:100A00001143016210BD4183704700000148008816
:100A10007047000054000020FEE7002904D0018840
:100A200041F4806101807047018821F48061018078
:100A30007047034600209A8A1B8B1B041A4322F03E
:100A40007F42914300D101207047C94381827047A2
:100A5000002904D0018841F001010180704701881C
:100A600021F001010180704730B587B00121880570
:100A700000F08CFC0121802000F07AFC1E4D042245
:100A800011462846FFF7AFFF042205212846FFF74D
:100A9000AAFF1021059102218DF818108DF8191068
:100AA00001218DF81A1000248DF81B4005A9284655
:100AB000FFF75BFF2021059105A92846FFF755FFA9
:100AC000ADF808404BF6FF70ADF80A007820ADF89D
:100AD0000C002815ADF80E000001ADF81000074815
:100AE0000190074C01A9204600F070F80121204632
:100AF000FFF7AEFF07B030BD001C0240801A0600B1
:100B00000058004010B5154988420AD101214C0512
:100B1000204600F049FC2046BDE81040002100F0CE
:100B200043BC0F4988420AD101218C05204600F0C0
:100B30003BFC2046BDE81040002100F035BC0949CF
:100B400088420AD10121CC05204600F02DFC204628
:100B5000BDE81040002100F027BC10BD005400404B
:100B600000580040005C0040002904D0018841F496
:100B7000807101807047018821F480710180704785
:100B8000002904D0018841F4007101807047018878
:100B900021F40071018070470CB5024600200092DC
:100BA0000A0F019221F07F41019A002A03D0009A96
:100BB0001432009203E0090C009A18320092009A55
:100BC00012680A4200D001200CBD00007FB5044627
:100BD0000D46A08820F03F06684600F001FC029810
:100BE0002749B0FBF1F189B20E43A680228822F09A
:100BF00001022280234B2A689A4209D85200B0FB96
:100C0000F2F080B2042800D20420491C218423E0A1
:100C1000EB88A3F53F46FF3E0BD002EBC20303EB8C
:100C20000212B0FBF2F080B240F48040020506D020
:100C300007E002EB4202B0FBF2F080B2F6E740F0D0
:100C4000010040F400404FF4967251434FF47A7221
:100C5000B1FBF2F1491C2184A083208840F00100FF
:100C6000208020884FF6F5310840A9886A89114311
:100C700001432180A8892989084320817FBD000084
:100C800040420F00A086010008B50090009808447B
:100C900000900098008808BD008AC0B27047002A02
:100CA00002D041F0010101E001F0FE010182704734
:100CB00001827047002904D0018841F4004101807D
:100CC00070470188C1F30E01018070472DE9F041A2
:100CD00004460E461D4D4FF4003739462846FFF7AF
:100CE0005BFF0028F9D101212846FFF73DFF184F8F
:100CF00028463946FFF79DFE0028F9D000227821CA
:100D00002846FFF7CCFF134F28463946FFF791FEE0
:100D10000028F9D021462846FFF7CAFF0D4CA41C35
:100D200021462846FFF785FE0028F9D0314628469F
:100D3000FFF7BEFF21462846FFF77BFE0028F9D0CB
:100D40002846BDE8F0410121FFF71ABF00580040D6
:100D500001000300820007007FB50546174C012102
:100D60002046FFF70DFF01212046FFF7A3FF0021DA
:100D70002046FFF79FFF2046FFF7C4FE0020ADF896
:100D800004004BF6FF72ADF80620ADF80800201500
:100D9000ADF80A000001ADF80C00094800900121EF
:100DA0002046FFF755FE69462046FFF70FFF29460C
:100DB00004A001F0C3FA04B0012070BD005400404B
:100DC000801A06003C3C2D4932432D4552524F5269
:100DD0002D3E3E204932432063616C6C6261636B3F
:100DE000206572726F7220636F6465203D202564F8
:100DF0000A00000030B587B00121480500F0C6FAAE
:100E00000121022000F0B4FA4020059002208DF864
:100E1000180003208DF8190001208DF81A00002415
:100E20008DF81B40194D042206212846FFF7DBFDF3
:100E300005A92846FFF799FD802105910422072185
:100E40002846FFF7D0FD05A92846FFF78EFD104D77
:100E50002846FFF757FEADF808404BF6FF71ADF896
:100E60000A10ADF80C402915ADF80E100901ADF8C7
:100E700010100849019101212846FFF7E9FD01A959
:100E80002846FFF7A3FE07B030BD00000004024073
:100E900000540040801A06002DE9FC410121882001
:100EA00000F066FA4FF48065009501218DF804107A
:100EB00000208DF806008DF807108DF80500114F01
:100EC00069463846FFF751FD6C0000946946384684
:100ED000FFF74BFD6600009669463846FFF745FD73
:100EE0000094094F69463846FFF73FFD0549183120
:100EF0000D800C800E8021463846FFF784FDBDE84A
:100F0000FC810000001C0240000C02401CB504469D
:100F1000062269463B2000F0CCF89DF801009DF8C0
:100F2000001040EA012020809DF803009DF8021087
:100F300040EA012060809DF805009DF8041040EA19
:100F40000120A0801CBD1CB5044606226946432032
:100F500000F0AFF89DF801009DF8001040EA012074
:100F600020809DF803009DF8021040EA0120608077
:100F70009DF805009DF8041040EA0120A0801CBDEA
:100F800008B50020009001226946752000F091F814
:100F90009DF80010682904D0044801F0CFF9002022
:100FA00008BD03A001F0CAF9012008BDF032000815
:100FB0003C3C2D4932432D494E464F2D3E3E204D5F
:100FC000505536303530204944203D2025640D0AE7
:100FD0000A0000002DE9F0410646224DB5F9000057
:100FE0000F30FFF7B0FA6FF00D042246FFF794FAC6
:100FF00001F0ECFAC6E90001B5F90200A238FFF7EA
:10100000A2FA2246FFF788FA01F0E0FAC6E90201E7
:10101000B5F90400A0F24F10FFF795FA2246FFF74A
:101020007BFA01F0D3FA04460D460F4FDFF83C80FF
:10103000D6E900013A464346FFF78DF9C6E90001BB
:10104000D6E902013A464346FFF785F9C6E90201AF
:101050003A46434620462946FFF77DF9C6E9040192
:10106000BDE8F08130000020A79196CADBA54C4076
:1010700010B500214FF47A720020401C9042FCDB36
:10108000491C9142F8DB00216B2000F039F8072160
:10109000192000F035F806211A2000F031F801215E
:1010A0001C2000F02DF81821BDE810401B2000F096
:1010B00027B80B460146682000F0E5BE38B5044667
:1010C000022269464120FFF7F4FF9DF801009DF8D8
:1010D000001040EA012000B2FFF735FA0022054B6C
:1010E000FFF7ABF9044A054BFFF78EF8FFF754FA08
:1010F000206038BD00407540A4703D0AD74342408F
:1011000013B5014601AB0122682000F0DBFE1CBDD7
:10111000FEE7704730B50F23C27801250178002A19
:101120001FD0154A126802F4E062C2F5E062C2F311
:101130000722C2F10404D3404278A24084781C40C4
:101140001443220101F1E02181F80024007800F02D
:101150001F018D404009800000F1E020C0F80051DF
:1011600030BD01F01F0085404809800000F1E020FB
:10117000C0F8805130BD00000CED00E0024908438A
:1011800002490860704700000000FA050CED00E01D
:1011900070B50646002505F1B000C0B201F0C5F8F3
:1011A000002001F0C2F8102001F0BFF80024304602
:1011B00001F0BFF8641CE4B2802CF8D36D1CEDB2D2
:1011C000082DE8D370BD10B50120FFF7C1FBAE209C
:1011D00001F0ABF8202001F0A8F8102001F0A5F8EC
:1011E000B02001F0A2F8C82001F09FF8002001F023
:1011F0009CF8102001F099F8402001F096F8812029
:1012000001F093F8FF2001F090F8A12001F08DF893
:10121000A62001F08AF8A82001F087F83F2001F00D
:1012200084F8A42001F081F8D32001F07EF800209A
:1012300001F07BF8D52001F078F8F02001F075F886
:10124000D92001F072F8222001F06FF8DA2001F0C5
:101250006CF8122001F069F8DB2001F066F820201C
:1012600001F063F88D2001F060F8142001F05DF8C2
:10127000BDE81040AF2001F058B810B50446B031B9
:10128000C8B201F052F8102040EA141001F04DF8F5
:1012900004F00F00BDE8104040F0010001F045B837
:1012A0002DE9F04704460F4691460026012B22D037
:1012B000022B24D1DFF8ACA04EE0203800F0FF086C
:1012C0007E2C02D900247F1CFFB239462046FFF74E
:1012D000D4FF0025244908EB480001EB400818F82A
:1012E000050001F026F86D1CEDB2062DF7D3A41D04
:1012F000E4B2761CF6B219F806000028DDD1BDE88C
:10130000F087203800F0FF08782C02D900247F1CD9
:10131000FFB239462046FFF7B0FF002505EB081065
:101320001AF8000001F005F86D1CEDB2082DF5D398
:10133000781CC1B22046FFF7A0FF002505EB08107E
:101340005044007A00F0F5FF6D1CEDB2082DF5D386
:101350000834E4B2761CF6B219F806000028D0D1A1
:10136000CDE70000B02C0008882A00087047000074
:10137000054A002903D011680143116070471168C4
:10138000814311607047000030380240054A00294F
:1013900003D01168014311607047116881431160E7
:1013A0007047000040380240054A002903D0116808
:1013B000014311607047116881431160704700005C
:1013C00020380240054A002903D01168014311600A
:1013D0007047116881431160704700004438024033
:1013E00070B5244B196801F00C01234C00291ED064
:1013F000224E04291DD008291DD00460196801F06F
:10140000F00109091E4A545C0168E14041601C6812
:1014100004F4E054A40A145D21FA04F484601B6807
:1014200003F460435B0BD25CD140C16070BD0460CB
:10143000E4E70660E2E70F4A121F1168C1F3805526
:10144000116801F03F0135B1B6FBF1F11468C4F346
:101450008814614305E0B4FBF1F11468C4F3881407
:1014600061431268C2F30142521C5200B1FBF2F117
:101470000160C3E7083802400024F40040787D0191
:1014800014000020002904D0018841F040010180AF
:101490007047018821F04001018070472DE9F0413B
:1014A00004460F4615460F4840260680032000F0EC
:1014B00093F9C7F3074000F08FF9C7F3072000F056
:1014C0008BF9F8B200F088F904E0FF2000F084F90D
:1014D00004F8010B6D1EADB2F7D20248801E0680E3
:1014E000BDE8F0811A1402402DE9F04706460D468A
:1014F000E8B24142CFB2140A02F0FF094FF48078FB
:10150000002812D0E8B24042C0B205EB000A34B362
:10151000D01B80B2040A00F0FF093A462946304643
:1015200000F0B8F855463E4439E074B929463046D3
:10153000BDE8F04700F0AEB842462946304600F01C
:10154000A9F805F5807506F58076641EE4B2F3D23D
:101550004A4629463046BDE8F04700F09BB8B945F9
:101560000ED9A9EB0700C4B23A462946304600F02E
:1015700091F85146F0192246BDE8F04700F08AB8CC
:1015800029463046BDE8F04700F084B84246294677
:10159000304600F07FF805F5807506F58076641E0C
:1015A000E4B2F3D2B9F1000F06D04A4629463046DC
:1015B000BDE8F04700F06EB8BDE8F0872DE9F043D4
:1015C00087B001212020FFF7D3FE01210805FFF796
:1015D000F9FEDFF8B890052207214846FFF703FA25
:1015E000052208214846FFF7FEF905220921484651
:1015F000FFF7F9F98020009002258DF805508DF84D
:10160000045000248DF806408DF80740694648468E
:10161000FFF7ABF9E801009069464846FFF7A5F9E6
:101620004FF40078CDF8008069464846FFF79DF9F1
:101630004027009701268DF8046069464846FFF769
:1016400094F9124818300780ADF808404FF48270C2
:10165000ADF80A00ADF80C40ADF80E50ADF81060D2
:10166000ADF81280ADF81440ADF816400720ADF883
:101670001800074C02A9204600F01FF9012120465E
:10168000FFF700FF07B0BDE8F08300000014024040
:10169000005001402DE9F04105460F46144600F088
:1016A000F3F8134840260680022000F095F8C7F3AF
:1016B000074000F091F8C7F3072000F08DF8F8B26A
:1016C00000F08AF8B000844208D9044609A000F06E
:1016D00035FE03E0287800F07FF86D1C641EA4B28C
:1016E000F8D20348801E0680BDE8F04100F0ACB897
:1016F0001A1402403C3C2D464C4153482D45525251
:101700004F522D3E3E205350495F464C4153485F57
:1017100050616765577269746520746F6F206C61E2
:10172000726765210A00000010B50B484024048050
:10173000AB2000F051F8FF2000F04EF8FF2000F041
:101740004BF8FF2000F048F8FF2000F045F8024970
:10175000891E0C8010BD00001A14024070B50D489F
:10176000402404809F2000F037F8FF2000F034F878
:101770000546FF2000F030F80646FF2000F02CF868
:1017800001460448801E0480280440EA06200843DD
:1017900070BD00001A14024070B5044600F074F8E1
:1017A00000F052F80B4840250580202000F014F886
:1017B000C4F3074000F010F8C4F3072000F00CF861
:1017C000E0B200F009F80348801E0580BDE87040D3
:1017D00000F03AB81A1402402DE9F0410746184CBF
:1017E0004FF480552560174E09E02068411E2160A6
:1017F00005D2002000F07EF8C0B2BDE8F0810221E1
:10180000304600F04FF80028EFD03946304600F05F
:1018100052F8256008E021684A1E226004D20120A7
:1018200000F068F8C0B2E8E70121304600F03AF86D
:101830000028F0D0304600F03CF8C0B2DDE70000F0
:10184000580000200050014070B50D48402505802B
:101850000520FFF7C1FF0B4CA8012060FF20FFF718
:10186000BBFF21684A1E226004D2BDE870400420FC
:1018700000F040B8C007F1D10148801E058070BD5E
:101880001A1402405800002010B505484024048076
:101890000620FFF7A1FF0248801E048010BD000053
:1018A0001A1402400246002012890A4200D0012088
:1018B0007047808970478181704730B5028802F493
:1018C00041530A884C88CD8822438C882C4322437C
:1018D0000C8922434C8922438C892243CC892243A0
:1018E0001A430280828B22F400628283098A018279
:1018F00030BD000010B5014602A000F01FFD002021
:1019000010BD00003C3C2D464C4153482D455252E1
:101910004F522D3E3E2053504920B5C8B4FDB3ACC4
:10192000CAB1216572726F72436F6465203D2025D4
:10193000640A00002DE9FF4F83B0044616461D4699
:1019400000200290F54801904FF40039DFF8D0B341
:1019500009E00198411E019105D207B00720BDE8BA
:10196000F04FFFF7F9B949465846FFF715F9002837
:10197000EFD101215846FFF7F7F84FF4617ACDF81F
:1019800004A0E84F09E00199481E019005D207B074
:101990000820BDE8F04FFFF7DFB939465846FFF79A
:1019A000FBF80128EFD14FEA440808F0FF010022BC
:1019B0005846FFF774F9CDF804A0DA4C641C09E02E
:1019C0000198411E019105D207B00920BDE8F04FF2
:1019D000FFF7C2B921465846FFF7DEF80128EFD1DC
:1019E00014215846FFF750F918215846FFF74CF9D3
:1019F000CDF804A009E00198411E019105D207B07D
:101A00000A20BDE8F04FFFF7A7B9C649C4487F31A7
:101A1000FFF7C2F80128EED1C1480499FFF748F951
:101A2000CDF804A0DFF8F8B209E00198411E019159
:101A300005D207B00B20BDE8F04FFFF78DB9B949CB
:101A400058467F31FFF7A8F80128EED1012158460A
:101A5000FFF78AF8CDF804A009E00198411E019132
:101A600005D207B00C20BDE8F04FFFF775B9394635
:101A70005846FFF791F80128EFD15F4608F0FF01C3
:101A800001223846FFF70BF9CDF804A009E00198D0
:101A9000411E019105D207B00D20BDE8F04FFFF7C0
:101AA0005BB921463846FFF777F80128EFD1DFF818
:101AB00074B2012E0BF13F0B0FD0022E35D0032E46
:101AC00065D014213846FFF7DFF818213846FFF7B4
:101AD000DBF80024A6F10308F9E000213846FEF700
:101AE0009CFF14213846FFF7CFF818213846FFF73E
:101AF000CBF801213846FFF743F8CDF804A009E000
:101B00000199481E019005D207B00E20BDE8F04FA4
:101B1000FFF722B959463846FFF73EF80128EFD1C2
:101B20003846FFF7B9F82870D3E000213846FEF7B1
:101B300074FF388840F40060388014213846FFF77D
:101B4000A3F818213846FFF79FF8CDF804A0754C8C
:101B5000E41C09E00199481E019005D207B00F204E
:101B6000BDE8F04FFFF7F8B821463846FFF714F804
:101B70000128EFD101213846FFF702F83846FFF778
:101B80008BF828703846FFF787F86870A1E01421B9
:101B90003846FFF779F818213846FFF775F8CDF881
:101BA00004A0604CE41C09E00199481E019005D294
:101BB00007B01020BDE8F04FFFF7CEB821463846F9
:101BC000FEF7EAFF0128EFD100213846FEF725FF96
:101BD0003846FFF761F8287001213846FEF7D0FF3C
:101BE0003846FFF759F86870CDF804A009E001996C
:101BF000481E019005D207B01120BDE8F04FFFF755
:101C0000ABB859463846FEF7C7FF0128EFD1384632
:101C1000FFF742F8A8705CE0444540D1CDF804A03D
:101C2000404EF61C09E00199481E019005D207B00C
:101C30001020BDE8F04FFFF78FB831463846FEF769
:101C4000ABFF0128EFD100213846FEF7E6FE38460B
:101C5000FFF722F801462046641C2954012138462A
:101C6000FEF78EFF3846FFF717F8661C2855CDF8AB
:101C700004A009E00199481E019005D207B0112087
:101C8000BDE8F04FFFF768B859463846FEF784FFC5
:101C90000128EFD13846FEF7FFFFA85519E0CDF82F
:101CA00004A009E00198411E019105D207B012205D
:101CB000BDE8F04FFFF750B859463846FEF76CFFC5
:101CC0000128EFD13846FEF7E7FF2855641CB442DF
:101CD000A2D314493846C91CFEF7B7FE0F4901913B
:101CE00009E00198421E019205D207B01320BDE819
:101CF000F04FFFF731B849463846FEF74DFF002850
:101D0000EFD101213846FEF788FE398821F40061C1
:101D10003980029807B0BDE8F08F0000B01E0400C3
:101D200000540040010000102DE9F84F81460C4698
:101D3000174698464FF0000A4F4800904FF400367F
:101D40004E4D08E00098411E009104D2BDE8F84FC6
:101D50000120FFF701B831462846FEF71DFF002895
:101D6000F0D101212846FEF7FFFE4FF46176009680
:101D7000DFF80CB108E00098411E009104D2BDE8E4
:101D8000F84F0220FEF7E8BF59462846FEF704FF49
:101D90000128F0D14FEA4960010E00222846FEF7E3
:101DA0007EFF0096DFF8D89009F1010908E000985D
:101DB000411E009104D2BDE8F84F0320FEF7CCBFCE
:101DC00049462846FEF7E8FE0128F0D114212846AE
:101DD000FEF75AFF18212846FEF756FF0096DFF857
:101DE000A09009F17F0908E00098411E009104D2FB
:101DF000BDE8F84F0420FEF7AFBF49462846FEF77E
:101E0000CBFE0128F0D121462846FEF751FF0024E1
:101E100016E0009608E00098411E009104D2BDE84B
:101E2000F84F0520FEF798BF49462846FEF7B4FE56
:101E30000128F0D118F804102846FEF739FF641C79
:101E4000BC42E6D300960E4CE41C08E00098421E0B
:101E5000009204D2BDE8F84F0620FEF77DBF214670
:101E60002846FEF799FE0128F0D101212846FEF709
:101E700087FE5046BDE8F88FB01E040000540040B5
:101E80000100001070472DE9F04706460F469046C6
:101E900099460024FEF7BAFD05464B4642463946B0
:101EA0003046FFF747FD00280AD0002D08D0214614
:101EB000641CE4B2042903D82846FEF73FFDECE792
:101EC000BDE8F0872DE9F04706460F469046994653
:101ED0000024FEF79BFD05464B46424639463046F8
:101EE000FFF722FF00280AD0002D08D02146641CED
:101EF000E4B2042903D82846FEF720FDECE7BDE84C
:101F0000F08700001CB50021019100912E4A106855
:101F100040F4803010604FF4A043106800F40030AB
:101F200000900198401C0190009810B901989842C7
:101F3000F3D11068800302D50120009000E00091E9
:101F4000009801283FD120484030016841F080517D
:101F500001601E49086840F4404008601A48083093
:101F600003680360036843F400430360036843F4B9
:101F7000A0530360041F164B2360136843F0807363
:101F8000136013689B01FCD50A6842F480320A6032
:101F90004A68D203FCD50A6842F400320A604A68F3
:101FA0009203FCD50B4A40F205711160016821F0E3
:101FB00003010160016841F0020101600168C1F3A1
:101FC00081010229FAD11CBD003802400070004096
:101FD000195A4007003C024010B50020154951F83D
:101FE0002020521C41F82020401C0228F7DB0A6800
:101FF0000020B2F57A7F05D308600F4A136883F496
:10200000006313604A68B2F5FA7F0FD34860094C49
:10201000241F206850B90948FEF778FF0848FEF7EA
:1020200092FF0848FFF74AF801202060BDE8104001
:1020300000F0FAB844000020141C024030000020D8
:10204000360000203C0000200D484FF47A710068F3
:10205000B0FBF1F0401EB0F1807F01D301200AE017
:102060004FF0E0214861074AF0201070002088619D
:10207000072008610020002800D0FEE7704700001C
:102080000000002023ED00E010B50F48016841F08A
:10209000010101600C4A00210832116002680B4BFB
:1020A0001A400260031D0A4A1A60026822F4802264
:1020B000026005480C300160FFF724FF05494FF02E
:1020C0000060086010BD000000380240FFFFF6FE0F
:1020D0001030002408ED00E010B5114C012120461D
:1020E00000F038F800281AD00E480178491CC9B20F
:1020F000017000230C4A3C2903D903701178491C54
:10210000117010783C2804D9137008490878401CD5
:1021100008702046BDE81040012100F00CB810BD49
:102120000010004026000020250000202400002090
:10213000C94301827047C94301827047002904D016
:10214000018841F0010101807047018821F00101FF
:102150000180704702460020138A0B4092890A4092
:10216000002B02D0002A00D001207047002A03D0A3
:1021700082890A438281704782898A4382817047BB
:1021800030B50288164C174DA0420DD0A8420BD096
:10219000B0F1804F08D0144B984205D0134B9842B1
:1021A00002D0134B984203D122F070034A881A439D
:1021B000104B984206D0104B984203D022F4407343
:1021C0000A891A4302804A68C2620A880285A042CC
:1021D00001D0A84201D1897A01860121818230BDD6
:1021E00000000140000401400004004000080040DD
:1021F000000C0040001000400014004008B54FF4EF
:10220000E060FEF7BBFF36208DF8000000208DF85F
:10221000010003208DF8020001208DF803006846BC
:10222000FEF778FF08BD000003484168002902D08E
:102230004168491E416070474C000020002904D0CD
:10224000818941F4005181817047818921F40051D5
:10225000818170470246002012880A4200D0012086
:10226000704700007FB504460D46208A20F4405197
:10227000E88808432082A08941F20C618843A9883C
:102280002A8911436A8902431143A181A08A20F45B
:102290004071A8890843A0826846FFF7A1F81E484C
:1022A000844202D01D48844201D1039800E0029884
:1022B000A189090408D500EBC00101EB00102968D1
:1022C0004900B0FBF1F007E000EBC00101EB0010AA
:1022D00029688900B0FBF1F06422B0FBF2F109013A
:1022E0000B096FF018056B4300EB8300A3891D04F5
:1022F0004FF0320307D503EBC000B0FBF2F000F063
:102300000700084306E003EB0010B0FBF2F000F01A
:102310000F00084320817FBD0010014000140140E0
:10232000C1F3080181807047FEE701460020FEF7F7
:10233000CDBC01464020FEF7C9BC00000FB4054BE0
:1023400010B503A9044A029800F090F810BC5DF89B
:1023500014FB0000612800085C0000200FB4084B4B
:1023600010B504A902AA039800F080F8044602A957
:10237000002000F025F9204610BC5DF814FB000099
:10238000C12500082DE9F0414F1E00EBC7010446AE
:10239000D1E9000115461E4637F006020DD02A4647
:1023A0003346FDF7D8FF7F1E04EBC703D3E90023B4
:1023B000FDF72AFF37F00602F1D1022F25D0042FB6
:1023C00013D0062F18BFBDE8F0812A463346FDF72B
:1023D000C2FFD4E90A23FDF717FF2A463346FDF76B
:1023E000BAFFD4E90823FDF70FFF2A463346FDF76D
:1023F000B2FFD4E90623FDF707FF2A463346FDF76F
:10240000AAFFD4E90423FDF7FFFE2A463346FDF771
:10241000A2FFD4E90223FDF7F7FE2A463346FDF773
:102420009AFFD4E90023BDE8F041FDF7EDBE01229B
:10243000FEF772B80022134610461146FDF7FDBFA5
:1024400002E008C8121F08C1002AFAD1704770477D
:10245000002001E001C1121F002AFBD170470000DB
:102460000149086070470000600000202DE9FF4F1F
:1024700089B09B460446002506E025280BD05A4625
:102480000B999047641C6D1C20780028F5D10DB085
:102490002846BDE8F08F0027B8460122474900E0F2
:1024A000074314F8013F203B02FA03F00842F7D13A
:1024B00020782E2819D114F8010F47F004072A2894
:1024C0000ED06FF02F022078A0F1300109290CD82E
:1024D00008EB880102EB410100EB0108641CF2E704
:1024E0000A98641C50F8048B0A9020780028CED0FB
:1024F000642808D0692806D075281ED05A460B9942
:1025000090476D1C58E00A994FF00A0901C90A91D9
:10251000002802DA40422D2102E0390504D52B21A2
:102520008DF82010012103E0F90704D02021F7E7FE
:102530008A4608AE0DE00021FAE70A994FF00A0931
:1025400001C90A91F7E74946FEF742F8303106F82B
:10255000011D0028F7D1ADEB060000F12009780736
:1025600001D44FF00108C84502DDA8EB090000E0E6
:1025700000208046002706E008A85A46C05D0B9957
:1025800090476D1C7F1C5745F6DB04E030205A460F
:102590000B9990476D1CB8F10001A8F10108F5DC1A
:1025A00005E016F8010B5A460B9990476D1CB9F1DE
:1025B0000001A9F10109F4DC641C65E709280100A8
:1025C0000A68531C0B601070704700002DE9F04D35
:1025D0000546DFF8388221F000408D4F82B00C466E
:1025E000404520DBA0EB080129430BD089498842F4
:1025F00001DC10D17DB102B028462146BDE8F04D86
:10260000FFF715BF002CC7BF00200146824839469E
:1026100002B0BDE8F08D0120FFF722FF02B0BDE857
:10262000F04DFFF707BF7D49884244DA7C4981427B
:10263000A1BF79487B4902B0BDE8F08D2A46234608
:1026400010461946FDF787FE8346024676480E4639
:102650000B4606217844FFF795FE5A463346FDF7B0
:102660007AFE074671488A465A4633460421784422
:10267000FFF788FE5A463346FDF76DFE00224346BB
:10268000FDF7C2FD02460B4638465146FDF7D5FE22
:102690002A462346FDF75FFE654A664BFDF758FE66
:1026A0002A462346FDF754FE02B05B4ABDE8F04DD2
:1026B0005C4BFDF74DBE002C4FF000024BDA464656
:1026C000434628462146FDF79FFD4FF0FF32FDF7B8
:1026D00023FF0446024658480D460B46062178441F
:1026E000FFF750FE22462B46FDF735FE8046534845
:1026F0008A4622462B4604217844FFF743FE2246B1
:102700002B46FDF728FE00223346FDF77DFD0646E9
:102710008B462046294600F091F904460D46324684
:102720005B4640465146FDF788FE22462B46FDF7A4
:1027300012FE3F4A3F4BFDF708FE22462B46FDF7AF
:1027400063FD0122FDF7E8FE02B03B46BDE8F04D17
:10275000314AFDF7FDBD2D4B28462146FDF7F8FD1A
:102760004FF0FF32FDF7D8FE05460E4600F066F941
:1027700000270C4680463A460B46FDF745FD82464B
:102780008B463A46234610461946FDF7E4FD2A4695
:102790003346FDF7DDFD52465B46FDF74EFE8246B1
:1027A00027488B462A46334606217844FFF7EAFD40
:1027B0002A463346FDF7CFFDCDE9000121482A46E0
:1027C000334604217844FFF7DDFD2A463346FDF702
:1027D000C2FD00220D4BFDF717FD02460B46DDE959
:1027E0000001FDF72AFE42462346FDF7B4FD52469E
:1027F0005B46FDF709FD3A462346FDF705FD02B0AD
:102800000122BDE8F04DFDF787BE00000000F03F5B
:10281000FB2109400000F07F182D44540000E03FE8
:102820000000603CFB21F93F480C00005E0C0000FA
:10283000075C143326A6913CBE0B0000D40B0000AD
:10284000F20A0000080B000042F6E06303E01946BC
:10285000491E89B2FCD2401E80B2F8D270470000F7
:1028600070B50446064DE1B22846FFF759FD8021B8
:102870002846FFF7EFFC0028F9D0204670BD000085
:10288000001001409AB0002611961296139614215A
:102890000CA8FDF7AEFC00240B96282101A8FDF73B
:1028A000A8FCFEF78BFEFEF7F7FAFDF7FBFFFDF73E
:1028B000CEFFFFF7C9FB4FF0E020016941F00101B5
:1028C0000161FEF7D1F8FEF795FAFEF77CFCFEF702
:1028D000CFFBFF20FEF75CFC0120FEF739F800205B
:1028E000FEF756FC0120FEF733F8FEF71DFF3F4DC3
:1028F0006860C820FFF7A8FFFEF730FFA860FEF76A
:102900003FFBA8B1012200210BA8FEF7C7FD9DF8EF
:102910002C004FF0CD084FF48079CD2816D014202C
:1029200028700A206870AE70CDF82C80304F44E0DB
:1029300030A0FFF703FD35494FF480600880410067
:102940003248801E018081140180FEE7282249461A
:1029500001A8FEF7A3FD01982870029868700398FB
:10296000A870E3E714A8FEF735FBDDE918010022A3
:10297000274BFDF7F9FD00D2641C0021022325A29C
:102980000846FEF78DFC224625A111A8FFF7E6FCBC
:10299000022311AA03210020FEF782FC0398009075
:1029A000DDE9012321A10CA8FFF7D8FC02230CAA22
:1029B00005210020FEF774FC3E60CDF82C8000203D
:1029C000FEF7EAFE012200210BA8FEF78DFD287814
:1029D000019068780290A87803902822494601A8BF
:1029E000FEF782FD38680028E7D0BBE7240000200E
:1029F000400000200D0A4572726F7220696E204DF2
:102A0000505536303630A3A10D0A00001A1C024082
:102A10000000444057656C636F6D65210000000045
:102A2000737465703A2025640000000074696D6558
:102A30002025643A25643A25640000002DE9F04120
:102A400006460F46FDF7B2FE041E0D4618BF0120D4
:102A5000284320F00040C0F17F6000F1E040C00F4B
:102A60000ED0301C18BF0120384320F00040C0F1C8
:102A70007F6000F1E040C00F04BF0120FFF7F0FCD1
:102A800020462946BDE8F08100000000000000005B
:102A9000002F000000000700070000147F147F14BF
:102AA00000242A7F2A120062640813230036495545
:102AB000225000000503000000001C22410000001D
:102AC00041221C000014083E08140008083E0808B3
:102AD000000000A06000000808080808000060600E
:102AE0000000002010080402003E5149453E00004D
:102AF000427F4000004261514946002141454B312F
:102B0000001814127F10002745454539003C4A49FA
:102B1000493000017109050300364949493600066C
:102B20004949291E000036360000000056360000D4
:102B3000000814224100001414141414000041224F
:102B4000140800020151090600324959513E007C27
:102B50001211127C007F49494936003E4141412211
:102B6000007F4141221C007F49494941007F0909FA
:102B70000901003E4149497A007F0808087F0000AA
:102B8000417F4100002040413F01007F0814224165
:102B9000007F40404040007F020C027F007F04081D
:102BA000107F003E4141413E007F09090906003E79
:102BB0004151215E007F09192946004649494931A2
:102BC0000001017F0101003F4040403F001F2040C5
:102BD000201F003F4038403F006314081463000783
:102BE0000870080700615149454300007F414100DA
:102BF00000552A552A55000041417F00000402017A
:102C00000204004040404040000001020400002057
:102C100054545478007F4844443800384444442095
:102C200000384444487F00385454541800087E0942
:102C300001020018A4A4A47C007F0804047800000A
:102C4000447D4000004080847D00007F10284400C7
:102C50000000417F4000007C04180478007C0804D8
:102C6000047800384444443800FC24242418001814
:102C7000242418FC007C0804040800485454542000
:102C800000043F444020003C4040207C001C204089
:102C9000201C003C4030403C004428102844001CCC
:102CA000A0A0A07C004464544C44141414141414C4
:102CB0000000000000000000000000000000000014
:102CC000000000F8000000000000003330000000A9
:102CD00000100C06100C06000000000000000000B0
:102CE00040C07840C0784000043F04043F04040022
:102CF000007088FC08300000001820FF211E000032
:102D0000F008F000E018000000211C031E211E0046
:102D100000F00888700000001E21232419272110CC
:102D200010160E000000000000000000000000006F
:102D3000000000E018040200000000071820400016
:102D400000020418E0000000004020180700000006
:102D5000404080F0804040000202010F010202006A
:102D6000000000F0000000000101011F010101004E
:102D7000000000000000000080B0700000000000B3
:102D8000000000000000000000010101010101013C
:102D900000000000000000000030300000000000D3
:102DA00000000000806018040060180601000000A8
:102DB00000E010080810E000000F102020100F00A5
:102DC000001010F8000000000020203F202000002C
:102DD0000070080808887000003028242221300084
:102DE00000300888884830000018202020110E008C
:102DF0000000C02010F8000000070424243F240035
:102E000000F80888880808000019212020110E0009
:102E100000E0108888180000000F112020110E001B
:102E200000380808C83808000000003F0000000013
:102E30000070880808887000001C222121221C00D4
:102E400000E010080810E0000000312222110F00FD
:102E5000000000C0C0000000000000303000000092
:102E60000000008000000000000080600000000002
:102E7000000080402010080000010204081020001B
:102E80004040404040404000040404040404040066
:102E900000081020408000000020100804020100FB
:102EA000007048080808F0000000003036010000FB
:102EB000C030C828E810E0000718272423140B00AE
:102EC0000000C038E0000000203C23020227382028
:102ED00008F8888888700000203F202020110E000C
:102EE000C030080808083800071820202010080003
:102EF00008F808080810E000203F202020100F00EC
:102F000008F88888E8081000203F202023201800B7
:102F100008F88888E8081000203F2000030000001F
:102F2000C03008080838000007182020221E0200C0
:102F300008F808000008F808203F210101213F207F
:102F4000000808F8080800000020203F20200000AA
:102F500000000808F8080800C08080807F0000009A
:102F600008F888C028180800203F200126382000D3
:102F700008F8080000000000203F2020202030003A
:102F800008F8F800F8F80800203F003F003F200054
:102F900008F830C00008F808203F200007183F005C
:102FA000E01008080810E0000F10202020100F008B
:102FB00008F808080808F000203F2101010100007E
:102FC000E01008080810E0000F18242438504F00C3
:102FD00008F8888888887000203F2000030C302083
:102FE00000708808080838000038202121221C00C1
:102FF000180808F8080818000000203F200000000A
:1030000008F808000008F808001F202020201F00F2
:103010000878880000C83808000007380E01000052
:10302000F80800F80008F800033C0700073C03001C
:10303000081868808068180820302C03032C302082
:103040000838C800C83808000000203F20000000F1
:1030500010080808C8380800203826212020180049
:10306000000000FE020202000000007F404040001D
:10307000000C30C000000000000000010638C00055
:1030800000020202FE000000004040407F000000FD
:103090000000040202020400000000000000000022
:1030A0000000000000000000808080808080808020
:1030B0000002020400000000000000000000000008
:1030C00000008080808000000019242222223F20FE
:1030D00008F8008080000000003F112020110E0041
:1030E0000000008080800000000E112020201100D0
:1030F000000000808088F800000E112020103F2082
:103100000000808080800000001F22222222130005
:10311000008080F0888888180020203F2020000050
:103120000000808080808000006B94949493600005
:1031300008F8008080800000203F210000203F2010
:1031400000809898000000000020203F2020000010
:10315000000000809898000000C08080807F000000
:1031600008F8000080808000203F24022D302000DD
:10317000000808F8000000000020203F2020000088
:103180008080808080808000203F20003F20003FA2
:103190008080008080800000203F210000203F20B0
:1031A0000000808080800000001F202020201F0061
:1031B000808000808000000080FFA12020110E0090
:1031C0000000008080808000000E112020A0FF8081
:1031D000808080008080800020203F21200001002E
:1031E0000000808080808000003324242424190083
:1031F000008080E0808000000000001F2020000090
:103200008080000000808000001F202020103F20D0
:10321000808080000080808000010E300806010060
:1032200080800080008080800F300C030C300F0005
:1032300000808000808080000020312E0E31200030
:10324000808080000080808080818E701806010060
:1032500000808080808080000021302C222130007E
:1032600000000000807C020200000000003F40409F
:1032700000000000FF00000000000000FF00000050
:103280000002027C800000000040403F000000007F
:10329000000601010202040400000000000000001A
:1032A000555555555555C53F7D6FEB0312D6D4BFC7
:1032B0005544880E55C1C93F3B8F68B52882A4BFCD
:1032C00088B20175E0EF493F09F7FD0DE13D023F8E
:1032D0004B2D8A1C273A03C0C88A599CE52A004016
:1032E00059018D1B6C06E6BF82922EB1C5B8B33F63
:1032F0003C3C2D4932432D4552524F522D3E3E20EB
:103300004D5055363035302064656374656374659F
:1033100064206572726F72210D0ABCECB2E2B2BB1E
:10332000B5BD4D505536303530C4A3BFE9A3ACC749
:10333000EBBCECB2E9C4A3BFE9D3EBBFAAB7A2B020
:10334000E5B5C4BDD3CFDF0A000000006C33000830
:10335000000000206400000040240008D033000872
:103360006400002004040000502400080095BA0AFC
:103370000000000000000000010203040607080925
:10338000000000000102030401020304060708090B
:10339000140A00000000000000000000000000000F
:1033A000000000000000000000000000000000001D
:1033B000000000000000000000000000000000000D
:1033C0003700000000A00000000000000000000026
:04000005080001AD41
:00000001FF
